:020000041000EA
:1000000000B5324B212058609868022188439860DF
:10001000D860186158612E4B002199600221596106
:100020000121F02299502B49196001219960352056
:1000300000F044F80222904214D00621196600F024
:1000400034F8196E01211966002018661A6600F04E
:100050002CF8196E196E196E052000F02FF8012189
:100060000842F9D1002199601B49196000215960AB
:100070001A491B48016001219960EB211966A021F2
:10008000196600F012F800219960164914480160C1
:100090000121996001BC002800D000471248134993
:1000A000086003C880F30888084703B5996A0420EC
:1000B0000142FBD001200142F8D103BD02B5186610
:1000C0001866FFF7F2FF186E186E02BD00000240BE
:1000D000000000180000070000035F00212200005C
:1000E000F4000018222000A00001001008ED00E03C
:1000F00000000000000000000000000074B24E7A12
:1001000000200420F7010010C3010010C5010010F9
:10011000C1010010C1010010C1010010C101001097
:10012000C1010010C1010010C1010010C701001081
:10013000C1010010C1010010C9010010CB01001065
:10014000CD010010CD010010CD010010CD01001037
:10015000CD010010CD010010CD010010CD01001027
:10016000CD010010CD010010CD010010CD01001017
:10017000CD010010CD010010CD010010CD01001007
:10018000CD010010CD010010CD010010CD010010F7
:10019000CD010010CD010010CD010010CD010010E7
:1001A000CD010010CD010010CD010010CD010010D7
:1001B000CD010010CD010010CD010010CD010010C7
:1001C00000BE00BE00BE00BE00BE00BEEFF3058054
:1001D000103800BEF2EB8871447400106C7400108B
:1001E0003802001090A31AE71E481F49086006C88D
:1001F00081F3088810471D480068002801D019487D
:10020000F3E70DA40ECC002902D000F012F8F9E7B4
:100210001749184A002000E001C19142FCD116495B
:100220008847164988471649884700BEFDE701C937
:1002300001C29A42FBD370476C740010C0000020CA
:100240002C040020D87700100000042000000420B7
:10025000D8770010001004200010042000000000D7
:10026000704700000000000008ED00E0000000D032
:100270002C040020000D0220A131001051030010B9
:1002800061310010F8B5C04606480749091A8B10BD
:10029000C90FC91810B5491003D0044B002B00D06A
:1002A000984710BD2C0400202C0400200000000002
:1002B000054B10B5002B03D00449054800E000BFF2
:1002C000FFF7E2FF10BDC04600000000EC06002072
:1002D000185B001010B5D0231B065A68202313406A
:1002E0005A425341024A1370642004F0E5FCF2E7DD
:1002F000FD0C022010B507E0D0231B06802252011E
:100300005A61642004F0D8FC044B1B78002BF3D115
:10031000D0231B06802252019A61F2E7FD0C0220D5
:1003200010B50C2000F074F8D0231B068022520177
:100330005A6210BD10B5052000F06AF8D0231B06E4
:1003400020229A6200220121052000F045F810BD0C
:1003500030B583B003F042F8FFF7E2FFFFF7EAFFA2
:10036000802464000B490C4800250195012300936B
:100370000023220004F0B0FA08490948019502233D
:1003800000930023220004F0A7FA04F0E1FA30BF42
:10039000FDE7C046185B0010D5020010245B00107A
:1003A000F502001010B58300084A9A18146840221C
:1003B000544080322240064CA44663441A60C00078
:1003C000044B9C466044416010BDC04604C00140DF
:1003D00004D001400040014080000C4B9C4660442A
:1003E00000290ED00823002A0DD0042213430268EE
:1003F00053400C2213408022520194466044036013
:1004000070470023EFE70022F0E7C04604C0014038
:1004100010B501238340D022120693629361052117
:10042000FFF7C0FF10BD00000FB400B583B008484F
:1004300002F0D9FF049B002B07D005A901911800F9
:1004400002F0E0FF034802F0CEFF012002F086FE3A
:10045000305B0010405B001010B50148FFF7E4FF6F
:10046000445B0010EFF3108072B6034B1B68002B47
:10047000FBD0BFF35F8F70472C0100D0BFF35F8FBD
:10048000024B00221A6080F3108870472C0100D0C4
:10049000F8B506000C001500FFF7E4FFE308F718B5
:1004A000F15C07222240012393400B4205D1DBB2CD
:1004B0000B433B70FFF7E2FFF8BD21002800FFF778
:1004C000B3FF0000054A1078431CDBB21370172BF2
:1004D00002D9130010221A707047C0467003002022
:1004E000002307E0054A9A189200BFF35F8F0021AE
:1004F000116001331F2BF5D97047C046400000340E
:10050000074B9B68103080001950BFF35F8FBFF31B
:100510005F8F044B0021196082F310887047C0463A
:1005200000ED00E0240100D00048704700E400E046
:1005300010B5FFF7F9FF002302E0034A04C00133BE
:10054000072BFAD910BDC0468080808010B5038883
:10055000DA0A1C2A05D15B055B1502335B00C01863
:1005600010BD034B034A10210348FF3102F0FCFD8C
:10057000545B0010146E00106C5B001010B5091A6B
:100580000B1F0A4A88180A4A904208D8C90706D49D
:100590005B105B055B0D0748184380B210BD064B2E
:1005A000064A02210648FF3102F0DEFDFC0700008A
:1005B000FE0F000000E0FFFFB85B0010086E0010A7
:1005C0006C5B001010B5091A04394A08090B08D1F0
:1005D0004905490D064B0B430380064B13434380EB
:1005E00010BD054B054A0A210548FF3102F0BCFD4C
:1005F00000F0FFFF00F8FFFFE85B0010E46D001063
:100600006C5B001001238340034A10681840431EAE
:100610009841C0B27047C04600E100E0002A05D012
:10062000044BC0225200995019607047014A802340
:10063000D150FAE700E100E010B50A001F230340A3
:10064000012199404009FFF7E9FF10BD024B9B686B
:1006500010308000C058704700ED00E070B5040015
:100660000D00EFF3108672B60C4B1B68002BFBD00D
:10067000BFF35F8F2000FFF7E9FF094B984201D0DD
:10068000A84205D1320029002000FFF739FF70BDD4
:10069000044B054A0548E12102F066FD240100D023
:1006A000CD010010F85B0010246E00106C5B001090
:1006B000F0B5CE46474680B583B006000D00EFF397
:1006C000108872B64F4B1B68002BFBD0BFF35F8FB7
:1006D0004D4B9A6834001034A300D7584B4B9F42BF
:1006E00007D0AF4200D18AE00197494BFB1A2F2B6C
:1006F00009D9424639003000FFF702FF03B0C0BC01
:10070000B946B046F0BD3000FFF77CFF81460021BE
:100710003000FFF791FFBFF35F8FEFF305810029F2
:1007200001D08C4211D10123019C9C430020A3687D
:100730009D4212D00622A256002A0DDB53009B18C0
:100740009B00334A2000D418F1E7324B324AF4219F
:100750003248FF3102F008FD20009D4249D10625B4
:100760006557002D2BDB2A4B6A00521992009B180B
:100770009A68A260DA79E2719B795BB2A371002B6F
:100780000FDA2748A080224B6A00521992009B186A
:10079000244A11789971157049463000FFF74CFFD3
:1007A000A7E7680040198000194BC0180430FFF714
:1007B000CDFE0100231D1800FFF7E0FEE2E700294F
:1007C00012D100280ED0FF238371174B8380154967
:1007D0000B78A3710E4A154BA41A644163431B0D99
:1007E0000B70D9E7094FF2E71149201DFFF7EAFE28
:1007F000D2E7104B084A09480F4902F0B5FC034FF5
:1008000077E7C046240100D000ED00E0CD010010E4
:1008100074030020305C0010F46D00106C5B00105D
:1008200001BD0000FE0C022001BDFFFFAAAA0000CE
:10083000AE030020645C00103502000070B50500B6
:100840000C00FFF771FEAB089B00C2181168032370
:100850002B40DB00FF20984081439C4021431160E6
:1008600070BD0000F8B5012202432C4BD31A2F2B88
:1008700028D8EFF30583002B2AD0EFF3108472B64B
:10088000274909680029FBD0BFF35F8F234D254915
:100890000600761B76417143090D4DB222498968E5
:1008A0009B00C958914219D00021032930D81B4B15
:1008B0004A00521892009B189B795BB2AB421DD044
:1008C0000131F2E7194B1A4A1A481B4902F04CFC55
:1008D0001A4B174A17481A4902F046FC124A926806
:1008E0001849D150184B1A7882711D70BFF35F8F71
:1008F0000B4B00221A6084F31088F8BD074B4A00A6
:100900005618B6009E19FF27B771104AB280E9E762
:100910000F4B074A07480F4902F026FC74030020DA
:10092000240100D0AAAA000000ED00E06C5C0010D9
:10093000C86D00106C5B00106E020000945C00102B
:1009400071020000CD010010FE0C022001BDFFFF6E
:10095000A05C001082020000024B9C4661448900AA
:10096000016070474000003410B50400FFF7AAFD95
:1009700001002000FFF7F0FF01235B426360BFF33B
:100980005F8F10BD10B50400FFF79CFD0100200033
:10099000FFF7E2FF01235B42636000232372BFF392
:1009A0005F8F10BD10B50D4C09E00D4B0D4A0E4880
:1009B0001A2102F0D9FB2000FFF7D6FF08340B4BB9
:1009C0009C4209D22368002BF5D0012BEDD12000E9
:1009D000FFF7D8FF0C34F2E710BDC0461C0400201E
:1009E000A85C0010646E0010C85C00102C0400208D
:1009F0000004084370470000F0B5DE4657464E46F7
:100A00004546E0B583B0EFF3058303221A40009218
:100A1000B04B9200D35898461B78009A934207D166
:100A20000123009A93401A000193AB4B1A6015E121
:100A3000AA4BAB4AAB48922102F096FB43465A6957
:100A40004B465B004B44DB0093469B445B469E68F1
:100A5000DF68A54800F040FB801BB941002900DA9F
:100A600006E1002F60DB5B461C69A04B9C4245D031
:100A700043460820185E5B46598889B2FFF7B8FFE5
:100A80005B465969A04704000D0023002B434BD05F
:100A9000002D3DDA30003900001BA9415B4698600B
:100AA000D96000241C5F002C00DAE1E043465A695B
:100AB000924663001B19DB0053449A68DB6805000B
:100AC0000E00AD1A9E41002E00DAD1E043461C8193
:100AD00047460837BC46634600255D5F002D1DDB99
:100AE0006C006419E4005444A268E36806000F0037
:100AF000B61A9F41002F11DBA446ECE75B465C6908
:100B000023692000984700280ED065682468BCE758
:100B1000754800F0E1FA00196941BFE75B461D80A6
:100B20004B4662461380A3E05B4600229B5E424632
:100B300013811269EFF3108372B611680029FCD09B
:100B4000BFF35F8F42460221525E59460A804246F9
:100B5000494651801269BFF35F8F0021116083F312
:100B6000108885E043461969EFF3108372B60A686E
:100B7000002AFCD0BFF35F8F4246928812B29146A2
:100B80000122524241468A800A69BFF35F8F0021E9
:100B9000116083F310881AE09B465B4600229A5E40
:100BA000002A0BDB53009B18DB0053449868D9687C
:100BB00026002F00361A8F41002FEDDA4B4659469A
:100BC0000B80634600215B5E994663461A804B4664
:100BD000002B53DB43465A6992464B465B004B441D
:100BE000DB009C46D44463469C68DD684646083674
:100BF000B346D2E70023424693714146083143464B
:100C00000820185E11E001225242D317A260E3606F
:100C1000434608229B5E834206D00D80434608224D
:100C20009B5E2380434618812800431C2AD04346FC
:100C30005A6943001B18DB00D418D55E63881BB2C9
:100C4000002BE0DB2100EFE76B1C2AD1264800F0E7
:100C500043FA241A8D41002D34DC31D0224B019A05
:100C60005A63434608229B5E9946002B00DBE5E66B
:100C700043469B881BB2002B00DB73E743469B79FE
:100C8000002BB7D1434608229A5E002A1ADB43465E
:100C9000596953009B18DB00CB189C68DD68631C06
:100CA000D2D011498A6AA01A009B04339B005B587A
:100CB0009B1A9842CAD2009B04339B005C50C5E744
:100CC000002CCBD040BF03B0F0BCBB46B246A94617
:100CD000A046F0BD040700203C700540645D001094
:100CE000906E0010905D001000400540F909001062
:100CF00070B504000D0011000126AE400662280008
:100D0000FFF7ACFC01212800FFF796FC024B9C4644
:100D10006444266070BDC04638200000F8B5CE4659
:100D2000474680B50600894690461F00C160FFF720
:100D3000C9FB154B9C4660448000306143463370CC
:100D4000BBB27381D0221206127872700122524215
:100D50003281B2809B187380002406E0621E7369A2
:100D600065002D19ED005A530134BC42F6D3074BF0
:100D700042469200D650064A41464846FFF7B8FF21
:100D8000C0BCB946B046F8BD40000034040700209E
:100D9000F909001010B5084B1A68EFF3108172B60C
:100DA0001368002BFCD0BFF35F8F034802F032FEC4
:100DB0000020002110BDC046C00B002010B5064B1E
:100DC0001B69002B01D0044810BD044B044A0548A0
:100DD000652102F0C9F9C046BC030020D45D0010B3
:100DE000786E0010905D0010F8B504000569EFF30F
:100DF000108072B629680029FCD0BFF35F8F0221F2
:100E0000665E656971008919C9006D18002E02DBE4
:100E10000027E95F61802169BFF35F8F00270F60C2
:100E200080F31088002E2CDB0699296107996961EF
:100E3000AA60EB606B8801335B04590C002B00D176
:100E4000012169803000FFF7D3FD2169EFF31083A2
:100E500072B60A68002AFCD0BFF35F8FA2882A808E
:100E6000A6802269BFF35F8F0021116083F3108891
:100E7000E368217801228A4003498C4663441A6062
:100E8000F8BD01204042FBE73C20000070B582B075
:100E9000060014001D0008AB1B78002B07D100F0E2
:100EA0004DF922002B00121A8B41002B0ADB079B05
:100EB0000193069B009322002B003000FFF794FF64
:100EC00002B070BD0020FBE7F0B5C64600B584B0A7
:100ED0000500884616001F000AAB1C78FFF76EFF5E
:100EE0000294019700962A004346FFF7CFFF04B013
:100EF00080BCB846F0BD000030B5030008145A8924
:100F000090422EDA5C6942001218D200A2181D69C4
:100F1000EFF3108472B628680028FCD0BFF35F8F0F
:100F2000508880B20904090C884212D000201A6946
:100F3000BFF35F8F0021116084F31088002811D067
:100F4000DA681B7801319940074B9C466244116076
:100F500008E00649014389B2518001229A710120BB
:100F6000E5E7002030BDC0463C2000000080FFFFC8
:100F700010B50400FFF722FF2100FFF7BDFF10BDF1
:100F800070B582B005000C00EFF30583002B12D082
:100F90003A4B5B6A8B4209D3384A926A824208D242
:100FA0008B4201D0012002E0002000E0002002B0CE
:100FB00070BD0120FBE7FFF701FFC16803788A6A73
:100FC0002E00A81A04339B005B589B1A984212D338
:100FD00020BF2A4B5B6A9C4209D8284A926A9542F4
:100FE00007D99C4201D00120E1E70020DFE7002083
:100FF000DDE70120DBE7224A0023009328002100DF
:10100000FFF762FF00280BDD1C4B5B6A9C421BD87C
:101010001A4A926A954229D99C4213D0012314E0BE
:10102000164B5B6A9C4209D8144A926A954207D9CA
:101030009C4201D00120BAE70020B8E70020B6E7C3
:101040000120B4E7002300E00023002B00D120BFE3
:10105000FFF78EFF094B5B6A9C420BD8074A926AE6
:10106000964209D99C4203D00120A0E70123ECE776
:1010700000209CE700209AE7012098E70040054007
:10108000950D0010004870470040054010B50B4B0F
:101090001B69002B04D00A480A21FFF75DFC10BD34
:1010A000FFF7F0FF0400032100F00CF803481023C1
:1010B00003222100FFF732FEEDE7C046BC0300200B
:1010C000C00B002010B5024A0248FFF7E1F910BD3D
:1010D000F85D0010B80600200200436A906A19000B
:1010E000536A9942FAD17047416A00E0416A9942D5
:1010F000FCD300E0416A994202D1816A9142F9D35E
:101100007047F0B5C64600B5804614001D00FFF7D5
:10111000E3FF06000F0022002B0092197B41994249
:1011200002D804D1904202D901225242D31740463C
:10113000FFF7DAFF80BCB846F0BD000010B50248EA
:10114000FFF7CAFF10BDC0460040054010B50200C1
:101150000B000248FFF7D5FF10BDC0460040054018
:10116000074B98420AD0162301229A40054B1A6079
:10117000054B1B6811009943FAD170471723F3E719
:101180000080034000F0004008C0004070B5046BD0
:10119000E30701D4200070BD0B4BC3180B4A1A6043
:1011A000456A836AAD01ED18AD02062000F016F91C
:1011B000074900F003FB0100280000F0FFFA0021BE
:1011C000FFF7C4FFE6E7C04630300000010300002F
:1011D0004E0E000070B504000E001500FFF7D6FF9C
:1011E000E36A5E403540024BE3181D60206370BD2A
:1011F0002C10000070B505000C00062000F0EEF881
:10120000C000210000F0DAFA0130C60907D00E4B09
:101210009E4215D8400834003F26064000E00124D5
:101220006C62AE62002200212800FFF7D3FF062087
:1012300000F0D4F88000A101891900F0BFFA70BD58
:101240000026024CECE7C046FEFF0000FFFF000056
:10125000002909D00A22064B9C466044434258416B
:10126000044B4000C252704780225200F3E7C04650
:101270000080FCBFC40B002070B504000D000620E8
:1012800000F0ACF800281ED0104B9C421CD0162257
:10129000012393400E4A13602000FFF761FF0021F5
:1012A0002000FFF7D5FF29002000FFF7A3FFE26A27
:1012B00070235A400E331340064AA2181360064B9F
:1012C00023630323A36470BD1722E1E7008003407A
:1012D00000E000402C10000001030000F8B5D646E5
:1012E000474680B506000D001700984644002418B4
:1012F000A400294B9C4664446368089A934200D238
:101300006260331FDBB29A46012B2ED98022120174
:10131000C0239B01E3181A60204BB200D15800296A
:1013200007D0586900F04AFA013043001B18033B0C
:10133000FDD27F0123685F40E0233B4080225201C1
:10134000A21813605346012B1AD980239B01E3187E
:10135000802212011A60089B6360104BB60042465F
:10136000F250C0BCBA46B046F8BD012DCED1032222
:10137000C0239B01E3181A60A368DB07FCD5D8E7FC
:101380002168694003230B401360A3680122AA402F
:101390001A42FAD0D9E7C04600800040BC060020BF
:1013A000F0B583B005000E0017001800089900F092
:1013B00005FA0300089A140200943A00310028004C
:1013C000FFF78CFF03B0F0BD10B582B0802464003D
:1013D0000094FFF783FF02B010BD0000014B8000B6
:1013E000C0587047BC060020F0B5C64600B50400E2
:1013F0000E0017001D00374800F0E0F98046364B1C
:10140000FA18364B9A4239D80100380000F0D6F964
:101410000200103A98235B009A4235D86B1E062BC7
:1014200038D8069B013B062B34D83F09474537D3B4
:101430002D04069B1B031D432368002B36DB284B22
:101440009C4244D00C2201239340264A1360264A32
:101450001360264A1268190091430A1EF9D12660CA
:10146000A060234BE31821321A602268002AFCDABC
:10147000E56008221A6080BCB846F0BD1D4B1E4ACC
:101480001E48112101F070FE1D4B1B4A1B481921FB
:1014900001F06AFE1B4B184A18481C2101F064FE3B
:1014A000194B154A1548232101F05EFE22683F239F
:1014B0001340B342C3D1A3681B051B0D8342BED1A9
:1014C000E368EE22D2021340AB42B8D1D3E70D223B
:1014D000B9E7C046001BB70080E84BD380F8A932BB
:1014E00000C0024000E0004000F0004008C00040A2
:1014F000043000001C5E0010A86E00106C5E00102E
:10150000B85E0010D45E0010205F001080239B00A6
:101510000B43014AD36270470080054010B50100BB
:1015200018231B8814221088984710BD10B501009D
:1015300018231B8816221088984710BDF0B5C646A0
:1015400000B507000E0000250123984600E0013594
:10155000B5420AD2AC003C192068FFF7DFFF2060DB
:101560000028F4D100239846F1E7404680BCB846F5
:10157000F0BD0000064BAA2212011A602F22DA6089
:10158000044B054A1A60024B5B68002BFBDA70477C
:10159000004002400060024000B0FA0010B50400B4
:1015A00001E008CC9847024B9C42FAD310BDC046DC
:1015B0000C5B00107047000010B50248FFF7EEFF0B
:1015C00010BDC046D05A0010054B064A1A60064BA3
:1015D000064A1A60064B1A68044B9343FAD17047C7
:1015E00000E00040BFCDFBFE00F00040FE7F3C006D
:1015F00008C00040044BDB6C002B03D1034B80225E
:10160000D2021A607047C046000011504C201150A1
:10161000044B054A1A60054B1B68DB43DB01FAD11A
:101620007047C04600F00040FFFFFF0108C00040C7
:10163000034B40229A675A671A67DA667047C046BA
:1016400000F0014010B5FEF74BFF10BD70B5044D22
:10165000A968044CC022200000F09EFCAC6070BD64
:1016600000ED00E00000002070B50420FFF7B6FE9A
:10167000064900F0A3F805000024002C00DD70BD31
:10168000E0B22900FFF742FF0134F6E740420F00C5
:1016900030B583B0274B00229A67FFF76BFF264BCC
:1016A00001221A60234B5B6C012BFBD1234B0322DD
:1016B0001A60204B9B6B012BFBD101330093043349
:1016C0001F4A01211F48FFF78FFE052300931E4A82
:1016D00001211E48FFF788FE1D4B00220221042035
:1016E000FFF772FE1B4D2B00002201210520FFF7A2
:1016F0006BFE194C2300002200210720FFF764FE37
:101700002300002200210820FFF75EFE8023DB007B
:1017100000932300002200210920FFF741FE2B0047
:10172000002200210620FFF74FFEFFF79DFF03B0C8
:1017300030BDC046008000403CB0004030B00040AA
:10174000002F685900800240008C864700C002408C
:10175000001BB70040597307006CDC0201480421EC
:10176000014B1847E00300203D150010124A936F0B
:101770009B0815D29066D166002905D0FFE7FFE7E8
:10178000FFE7516F106F704704B580210906C2173B
:101790005140002800D0C84304F08AF9002104BD5C
:1017A000F0B5146E556E576F166FFFF7E3FF1466B2
:1017B000556657671667F0BD000000D0114A936F59
:1017C0009B0813D210665166002905D0FFE7FFE79A
:1017D000FFE7516F106F704704B5002801D000205B
:1017E000C04304F065F9002104BDC046F0B5146E95
:1017F000556E576F166FFFF7E5FF1466556657670E
:101800001667F0BD000000D094464A4A926F9208D5
:10181000624601D228E0C046F0B5464E346E756E81
:10182000776F366F00F020F89446424A146655668A
:10183000576716676246F0BD94463E4A926F92081B
:10184000624601D254E0C046F0B53A4E346E756E31
:10185000776F366F00F04CF89446364A146655663A
:10186000576716676246F0BD002B24DB11D00029B4
:101870003EDA00B5C943404200D1013100F038F8EA
:10188000C943404200D10131DB43524200D1013310
:1018900000BD002AEBD1002801D1002905D000208D
:1018A000C90FC90701D1C043410800B504F0F8F8D9
:1018B0000022002300BD00B500290ADBDB435242B1
:1018C00000D1013300F014F8C943404200D1013186
:1018D00000BDC943404200D10131DB43524200D137
:1018E000013300F005F8DB43524200D1013300BD63
:1018F000002923D1002B18D1002A0CD0BC460D4F53
:1019000038667A6600210023FFE7FFE7FFE77A6F7A
:10191000386F67467047002801D00748010000B5BE
:1019200004F0BEF80022002300BD02000B000020DE
:1019300000217047000000D0FFFFFFFF002B00D008
:10194000BFE0130C28D1002AE7D080B4114F3966CC
:101950007A66FFE7FFE730B4040C7B6F396F1B0436
:1019600023433B667A66FFE7FFE7FFE7C04684B2A2
:101970007B6F3D6F1B0423433B667A66FFE7FFE7FF
:10198000C04600232C042D0C7A6F386F0019694172
:10199000B0BC7047000000D0F0B594460025140E8E
:1019A00001D112020835140F01D112010435940F30
:1019B00001D192000235D40F01D152000135D40B70
:1019C0000134254F7C66254C3C660E0C93B2FFE734
:1019D000FFE7FFE73C6F6643360C7703BE46734371
:1019E000DF0B5B04C01AB941130C7343DB18C91A2F
:1019F000CE086643360CB64493B273431F0F1B01E7
:101A0000C01AB941130C73431F0B1B05C01AB9410F
:101A1000860D8F023E436643360C092D24DB520AA5
:101A20007243801A7703460A6643360C16235B1B03
:101A3000DE40DF40BF1964466643821B70460435B2
:101A400006330100D940A840C01900D30131A24299
:101A500006D20023F0BD0000000000D0FFFFFFFF12
:101A6000121B0130F3D3F1E709277F1BFE406446C8
:101A7000A2B27243801A00D20139220C7243130CB5
:101A80001204821A99410B00704604351337010085
:101A9000F940A840801900D30131002B02D1A242A5
:101AA0000AD2F0BD013000D30131121BFAD2013B42
:101AB000F8D1A24200D2F0BD013000D30131121B97
:101AC000F7E7F0B51C0C00D080E00CB400251C0A30
:101AD00004D11B02160E3343120208351C0B04D12D
:101AE0001B01160F3343120104359C0B04D19B00DC
:101AF000960F334392000235DC0B02D192185B4102
:101B000001351C00971864410134464F7C66464CF1
:101B10003C660E0CFFE7FFE7FFE7C0463C6F6643FD
:101B2000360C7703BE4697B27743C01B00D201390B
:101B3000C01B00D201399FB27743C91BC91B170CC8
:101B400077437E04FF0B801BB941CE086643360CF9
:101B50000C2D33DBB644120B1F053A431B0B97B217
:101B60007743C01B00D201399FB27743C91B170CC2
:101B700077433E043F0C801BB941860D8F023E43E4
:101B8000664329277F1BFE400C3D7746AF40BF19B7
:101B900030BCA2B2ABB272437343801A9941220C9B
:101BA0007243130C1204801A994102000B00013792
:101BB000001BA941F9D2781E0021F0BD0C277F1B24
:101BC000FE4077467F0BAF40FF19E0E700245D1C25
:101BD00007D0144F7D663966FFE7FFE7FFE7FFE7B1
:101BE0003C6F95B29EB265436643401BB141150CF4
:101BF0001E0C6543664336042F0C3E432D04401BE8
:101C0000B141994204D202000B0020000021F0BD36
:101C100001D19042F7D3801A994101349942F2D30D
:101C2000F6E70000000000D0FFFFFFFF4840414002
:101C3000484018B4134B5B68019308BD18B4114BAE
:101C40001B68019308BD94460F4A926F920805D213
:101C5000624618B40B4BDB68019308BD0A4AF0B525
:101C6000146E556E576F166F6246FFF7F2FF064A05
:101C70001466556657671667F0BD18B4014B9B682C
:101C8000019308BDBC090020000000D0FFB5504002
:101C90004240504059404B40594000E0FFB5154F7D
:101CA0004C00640D03D0BC4204D10C0314D80020B6
:101CB000090D09055C00640D03D0BC4204D11C036E
:101CC0000AD800221B0D1B0501264B4009D44B40AE
:101CD00003D58B4200D18242FFBD9942FCD1904294
:101CE000FFBD0B43DB1803431343F5D0C943491829
:101CF000FFBD0000FF07000000B5FFF7CFFF8041E8
:101D000000BDC04600B5FFF7C9FF01D9002000BDE6
:101D1000012000BD00B5FFF7B9FF01D9002000BDCB
:101D2000012000BD00B5FFF7B1FF804100BD0120DB
:101D300040054A00121804D85A00121801D8002091
:101D400070470120704700000021002805D170472E
:101D5000C1174840401AFAD0C90713B5064B1B6893
:101D600098470CBC441CA2401005120B0349091BE8
:101D700009051943114310BDBC0A00201F040000CF
:101D800010B54C00620D8023D218DB00D21A5B051F
:101D90007E2A10DD9E3A13DACC170903490819434D
:101DA0005242D140640001341532202A05DAD04075
:101DB0000843604310BD002010BD0846604310BDBD
:101DC000C80FC018013810BD18B4024B5B6A0193EC
:101DD00008BD0000BC09002010B50148FEF724FB37
:101DE0003C5F001070B513231C78012C12D0012C1D
:101DF00012DC214B214A93642148FFF78FFB214BD2
:101E0000186070BD20491D4A9800815001331F2B76
:101E1000F8D9ECE70023FAE71C48FFF787FB050039
:101E20001B48FFF783FB023803789B007F2B09DDFB
:101E300012488022290000F0AFF8022C08D0022CB2
:101E4000DADCD6E7134B144A1448332101F08CF93D
:101E5000134B1A88B5231B029A4209D1114B1A88D9
:101E6000114B9A4204D1114B1A88114B9A42E6D079
:101E70000020FEF7D9FAC046B51E0010BC090020AC
:101E80004C330000BC0A0020D91D00105344000050
:101E900053460000545F0010B46E0010985F0010AD
:101EA00054380000D8380000494600009C38000033
:101EB0005946000007B56046002800D100BE0188E1
:101EC0000A0A0230DF2AFAD1C9B2820804D3028892
:101ED00040880004104300E00068024A505003901C
:101EE00007BD0000BC09002010B50148FEF79CFAB0
:101EF000E460001070B513231E781848FFF716FB36
:101F00000500012E11D0012E09DDAB1E1B789B00B0
:101F10007F2B1DDD12488022290000F03DF811487A
:101F2000FFF7FCFA104B186070BD0D4854222900D1
:101F300000F032F8002300E001331F2BE3D8084AF9
:101F40009C00A258002AF7D10849054AA150F3E79E
:101F5000074B084A0848422101F006F953460000A1
:101F6000C00A00204C330000BC0A0020E91E00100B
:101F7000F45F0010C86E00102860001001480421B2
:101F8000014B1847F00300203D150010014B1B6862
:101F900018470000F0030020014B5B681847000061
:101FA000F0030020704710B5002802D00B68496884
:101FB000984710BD0100002007E083001B185B005C
:101FC000501C08601078C01830380A681378303B0D
:101FD000DBB2092BF1D97047F0B5DE4657464E46C5
:101FE0004546E0B583B093461F000C9B9A460D9C76
:101FF0000E9B99460F9B9B0703D0B8460F00060027
:1020000022E00192A34688464E46B9460700B442F4
:1020100007D2551C4B4641462020B84701342A00C0
:10202000F5E73D004F465C46019B9B46B146464660
:10203000B84637002E0007E0013C551C5346185D9A
:1020400043463900B0472A00002CF5D135003E0048
:1020500047460F9B9B0707D4100003B0F0BCBB465C
:10206000B246A946A046F0BDB0464E46B9462F003E
:102070005D46531BB342EFD2541C4B4641462020D1
:10208000B8472200F5E7F0B5CE46474680B585B0A3
:10209000944698460C9D0D9C0EAB1B789946109A61
:1020A000119B129EB7071CD4002B0CD0F7070AD542
:1020B0004F46002F02D10C37374204D0013B02E0DB
:1020C00030272F550134944201D21F2CF8D9F7073D
:1020D00007D59C4205D21F2C03D830272F55013439
:1020E000F5E7F70612D5770505D4002C03D0944206
:1020F00021D09C421FD00F9A102A32D00F9A022A68
:1021000037D01F2C0AD830222A5501341F2C05D86D
:102110004A46002A33D02D222A55013403960293D1
:102120000194009543466246FFF756FF05B0C0BCD8
:10213000B946B046F0BD621E012C10D00F9F102F83
:102140000BD014000F9A102AD8D1B206D6D51F2C66
:10215000D4D858222A550134D3E7023CCBE71400E7
:10216000C9E7B206EED41F2CECD878222A550134E8
:10217000C7E71F2CD2D860322A550134C1E7720755
:1021800003D52B222A550134C8E73207C6D52022B1
:102190002A550134C2E7F0B5DE4657464E4645465D
:1021A000E0B593B081468A46089209931CAB10CBE8
:1021B0001B789B461E9D219B9846002C03D1102323
:1021C00042469A4390468023DB0046461E404246E4
:1021D0001A4212D0002C22D000260EE03033D9B2A1
:1021E000771C0AAB995529002000FFF7E7FAAC42AB
:1021F00016D31F2F14D83E00040029002000FFF73B
:10220000DDFACBB2092BE9D94246920605D5412128
:10221000C918C9B20A39C9B2E2E76121F8E7270053
:1022200043460693209B05931F9B049303955B46AF
:10223000029301970AAB0093099B089A51464846BE
:10224000FFF721FF13B0F0BCBB46B246A946A0463B
:10225000F0BDF0B5DE4657464E464546E0B597B070
:102260000A900B910C929A46209B9946219F22AA94
:1022700013789B46249B0993259C289B98464A46A5
:102280003A4302D11032934398468022D200454609
:102290001540434613420AD04A463A4341D00025EE
:1022A0002E0053460D934D46099B9A461BE02E0087
:1022B00053460D934D46099B9A4614E03033DAB2EB
:1022C000731C99460EAB9A555246230028003900DC
:1022D000FFF7B2FABC4226D819D04B461F2B1CD8A8
:1022E0004E4605000F005246230028003900FFF734
:1022F000A3FAD3B2092BE1D94246920605D5412271
:10230000D218D2B20A3AD2B2DAE76122F8E7AA4585
:10231000E3D94E460D9B9A4608E04E460D9B9A46E1
:1023200004E0002602E04E460D9B9A464346069383
:10233000279B0593269B0493099B03935B4602937B
:1023400001960EAB009353460C9A0B990A98FFF72F
:102350009AFE17B0F0BCBB46B246A946A046F0BDF7
:10236000F0B5DE4657464E464546E0B591B080464C
:1023700089460C929A461A9C1B9D22002B00200035
:102380002900FFF7D4FC002800D0ECE001225242E3
:10239000D44B20002900FFF7C5FC002800D0E2E064
:1023A00001225242D04B20002900FFF7A5FC002853
:1023B00000D0D8E00022002320002900FFF79CFC79
:1023C000002800D0E4E0069407958023DB001E9AE5
:1023D0001A400D921E9A1A4201D106231C930698A8
:1023E000079902000B000892099303000A000243B8
:1023F00000D1D9E0080D4005400DBC4EB446604404
:102400000A03120B1E00BA4B13431F00FFF7A0FC78
:10241000B84AB94BFFF731FCB84AB94BFFF70EFC8D
:10242000089009910022B74B30003900FFF701FCFA
:10243000B54AB64BFFF721FC02000B00089809993A
:10244000FFF7FCFBFFF79CFC8346FFF781FC0600CF
:102450000F00AF4AAF4BFFF710FC0022AE4BFFF767
:10246000EDFBFFF78DFC0890AC4AAD4B3000390016
:10247000FFF703FC06000F000898FFF769FCA94A64
:10248000A94BFFF7FAFB02000B0030003900FFF701
:10249000D0FB06000F0002000B00FFF7EEFB0A90D6
:1024A0000B91089BA14A94466344002100220891A5
:1024B00009921B0509930023089332003B0030006A
:1024C0003900FFF7BBFB0E900F9132003B0000205C
:1024D0008021C905FFF7ADFB06000F000022944BD9
:1024E0000A980B99FFF7AFFB0022924BFFF7A6FB70
:1024F00002000B000A980B99FFF7A5FB00228E4BF8
:10250000FFF79CFB02000B000A980B99FFF79BFB5F
:1025100002000B0030003900FFF790FB02000B00B7
:102520000E980F99FFF78FFB0022714BFFF786FB88
:10253000089A099BFFF7A1FB06000F000896099770
:10254000069A079BFFF7EEFB00282FD001235B4282
:102550009C46E3440022774B30003900FFF773FBC1
:102560000890099122E01E9B04931D9B03931C9BE2
:1025700002930094019553460C9A4946404600F058
:10258000FFF811B0F0BCBB46B246A946A046F0BD6C
:102590000021002206910792069480231B069C4688
:1025A000AC446346079310E700239B465B466333C6
:1025B000C62B20D804261E9B1B0528D5089A099BEC
:1025C000190011430FD05D4A5D4B06980799FFF73C
:1025D000A1FB00287AD000225A4B06980799FFF7F2
:1025E0008BFB002872D01C9B5B4506DD5A469B1A6C
:1025F000013B1C9303E00526DDE700231C938023A9
:10260000DB001E9A1A431E92002600239B461D9B48
:102610009E4265D29F1B02231E9A1A400A921E9A5E
:10262000134202D0002E00D000275B46002B07D0BB
:10263000089A099B06980799FFF705FB06900791F2
:102640000022002320002900FFF756FB002800D0BD
:102650007CE03D4B1E9A1340049303971C9B02930E
:10266000069B079C0093019453460C9A49464046AA
:1026700000F086F8002E00D183E71E9B9B0671D5E3
:102680004525441C5346020049462800C0475A4687
:10269000D317D2185A4005230593013E0496002310
:1026A00003930A3302935B46DB0F01930092534678
:1026B000220049464046FFF76EFD0A9B002B00D1E1
:1026C0005FE7020047460C9E1D9D53E01C9B002BBC
:1026D0009DD00D9B002B9AD01C9B013B1C9396E731
:1026E000002798E7FFFFEF7FFFFFEFFF01FCFFFFF1
:1026F0000000F03FFB799F501344D33FB3C8608B79
:10270000288AC63F0000F83F61436F63A787D23F26
:1027100071A379094F930A400000E03F1655B5BBFD
:10272000B16B0240EF39FAFE422EE63FFF03000094
:1027300000002C4000002440000018402D431CEBFA
:10274000E2361A3F80842E41FFF7FFFF069C079D6B
:102750002200290080200006844661440B00069276
:10276000079376E765258CE7541C5346494620209D
:10277000B8472200931BAB42F6D3100001E7C046D6
:10278000F0B5DE4657464E464546E0B595B0069054
:10279000079193469946209F1E9A1F9B100019008F
:1027A000FFF7C5FA002831D101225242BF4B1E98D3
:1027B0001F99FFF7A1FA002837D101225242BC4BE2
:1027C0001E981F99FFF7AEFA00283DD10022B94BA1
:1027D0001E981F99FFF7A6FA002850D10022B64B89
:1027E0001E981F99FFF788FA002848D1002200237D
:1027F0001E981F99FFF780FA002850D100239846B1
:10280000229B5B0500D4B6E0002458E0229B039392
:10281000219B029303230193A84B00934B465A46F6
:1028200007990698FFF7D8FB0EE1229B0393219BA3
:10283000029304230193A24B00934B465A460799F7
:102840000698FFF7C9FBFFE00423229A1A40229959
:102850000B4210D09B4B002A0FD0042222990391E7
:1028600021990291019200934B465A460799069886
:10287000FFF7B2FBE8E0944BEDE70322EEE7229B83
:102880000493219B039302971E9B1F9C009301942A
:102890004B465A4607990698FFF762FDD4E01E9A08
:1028A0001F9B00200021FFF7C4F91E901F910123F8
:1028B0009846A5E70CAB30221A55013F01341F2C76
:1028C00001D8092FF6D81E981F99FFF759FA05006D
:1028D000FFF73EFA02000B001E981F99FFF7A9F9B7
:1028E0007A4BFA009B181A685B680A920B93FFF701
:1028F000C4F908900991FFF767FA0600FFF724FA78
:1029000002000B0008980999FFF793F908900991C4
:1029100000226F4BFFF706FA00282ED00136300058
:10292000FFF712FA02000B000A980B99FFF7EAF979
:10293000002801D001350026002F2CD12800FFF7F8
:1029400007FA02000B001E981F99FFF772F90600A4
:102950000F0000225E4BFFF7CFF9002846D100227E
:102960005B4B30003900FFF7DDF900283ED1EB0763
:102970003CD501353AE0062746E70022544B08983B
:102980000999FFF7B9F90028D6D1002E01D0F30735
:10299000D2D50136D0E7AA461F2C11D8013F0A2113
:1029A0003000FEF70BFF651C30310CAB19550A21C6
:1029B0003000FEF703FF092E0ED906002C00EBE7CE
:1029C00055461F2C0CD87B1E002F09D00CAA302195
:1029D00011551F000134F4E72B0055461C00F0E7A9
:1029E0001F2C03D80CAB2E221A5501341F2C10D8E3
:1029F0000A212800FEF7BAFE661C30310CAB1955CF
:102A00000A212800FEF7B2FE051E01D03400EDE7D2
:102A100034000323229A1340012B1CD01F2C06D80C
:102A20004346002B32D00CAB2D221A550134229B89
:102A30000393219B029301940CAB00934B465A469F
:102A400007990698FFF7C8FA15B0F0BCBB46B24626
:102A5000A946A046F0BD219B002B13D04346002B76
:102A600002D10C3313420FD0219B013B219319005B
:102A700003E00CAB30221A5501348C42CED21F2C0D
:102A8000F7D9CBE72199F8E72199F6E7229B5B0775
:102A900004D50CAB2B221A550134C8E7229B1B0727
:102AA000C5D50CAB20221A550134C0E7FFFFEFFF5C
:102AB000FFFFEF7F65CDCD4165CDCDC1CC6000106E
:102AC000D0600010C0600010C8600010D07000100E
:102AD0000000E03FF0B5DE4657464E464546E0B5BD
:102AE00093B08246884693461193002900D10DE3A6
:102AF00000255646119B1878002800D109E32528A7
:102B000009D06C1C5B462A004146B047119B01333B
:102B100011932500EEE701331193002720E00123F4
:102B20001F4301321192012418E002231F43013296
:102B30001192012412E004231F4301321192012457
:102B40000CE008231F4301321192012406E01023F8
:102B50001F4301321192012400E00024002C09D00F
:102B6000119A1378203BD9B21029F6D88B00C849A6
:102B7000CB589F46119B1A781300303BDBB2092BD0
:102B800010D92A2A13D00B94119B1A782E2A1ED002
:102B9000119A1378683BD9B2122959D88B00BD49D4
:102BA000CB589F4611A8FFF705FA0B90ECE71C9B4A
:102BB0001A1D1C921B68002B04DB0B93119B013325
:102BC0001193E1E7022217435B420B93F6E7802261
:102BD000D20017435A1C11925A781300303BDBB2D3
:102BE000092B0BD92A2AD3D11C9B1A1D1C921C68B5
:102BF000002C08DB119B01331193C9E711A8FFF7E3
:102C0000D9F90400C4E70024F4E780235B003B43C8
:102C1000511C119151786C2901D01F0018E0C0237C
:102C20009B001F430232119212E080233B43511C50
:102C300011915178682901D01F0009E0C0231F437A
:102C40000232119204E080235B001F430132119293
:102C5000119B1878672818D8252800D24CE2030069
:102C6000253BDAB2422A00D946E293008A4AD35879
:102C70009F4680239B001F4301321192E8E7802387
:102C80005B001F4301321192E2E7782800D933E25A
:102C9000692800D230E20200693AD2B2012393409F
:102CA0007E4A134211D11A0600D500E25B0500D41A
:102CB00022E21C9B1A1D1C921B689A46002C00D015
:102CC000B2E10122524253468EE16F280ED006D85F
:102CD00058283DD0622804D102239C4608E0782879
:102CE00039D010239F43063B9C4601E008239C46B5
:102CF000582833D0692803D0642801D00C22974388
:102D00007A0501D50122974369282AD0642828D062
:102D1000BA0500D59FE0FA0500D5C1E07A0600D4D7
:102D2000D3E01C9A111D1C911168FF220A400597DF
:102D30000B9B049303946346029300230193009238
:102D40005B462A0041463000FFF725FA050027E0E0
:102D500010239C46CCE710239C46C9E7202217434A
:102D6000C8E7BA0520D4FA0550D47A0666D51C9A6D
:102D7000111D1C911168FF220A40D0171118414003
:102D800005970B9B0493039463460293D20F019221
:102D900000915B462A0041463000FFF7FCF9050030
:102DA000119B01331193A5E61C9A073207218A4330
:102DB000110008311C91116853689946DB170C9378
:102DC0000D930C9A0D9B100048400E904A465340BC
:102DD0000F930E980F990C9A0D9B801A99410E90A3
:102DE0000F9108970B9B0793069463460493002367
:102DF00005934B46DA0F0292009001915B462A0040
:102E000041463000FFF725FA0500C9E71C9A111D5D
:102E10001C911268D0171118414005970B9B049321
:102E2000039463460293D20F019200915B462A00FD
:102E300041463000FFF7AFF90500B1E73A0605D586
:102E40001C9A111D1C910023D25E96E71C9A111D3D
:102E50001C91126891E71C9A073207218A431100DE
:102E600008311C9108970B9B0793069463460493C3
:102E700000230593029353681268009201935B4606
:102E80002A0041463000FFF7E4F9050088E7C04614
:102E9000306F0010746F0010C06F00104190000080
:102EA0001C9A111D1C9105970B9B04930394634678
:102EB000029300230193136800935B462A00414666
:102EC0003000FFF768F905006AE73A0606D51C9A54
:102ED000111D1C9112681204120C28E71C9A111D76
:102EE0001C91126823E7462819D01C9B0733072240
:102EF00093431A0008321C9204970B9A039202948F
:102F00001A685B68009201935B462A0041463000D4
:102F1000FFF736FC0500119B01331193EAE52023EE
:102F20001F43E2E7672801D0472802D180231B0115
:102F30001F43452801D0472801D120231F431C9B54
:102F40000733072293431A0008321C9204970B9A06
:102F5000039202941A685B68009201935B462A0010
:102F600041463000FFF7FCF90500119B0133119336
:102F7000C0E502231A003A4091463B421DD001248D
:102F80001C9B1A1D1C926F1C18785B462A00414638
:102F9000B0474B46002B14D1119B013311933D00D8
:102FA000A8E5571C5B4641462020B04723003A0065
:102FB0005C1C9D42F5D81500E2E701232A000B9D19
:102FC000F6E73A00B1460B9E06E0571C5B464146C9
:102FD0002020C8472C003A00651CA642F5D81700EF
:102FE0004E46D9E701330A001978002902D0511E54
:102FF000002AF7D152469B1A8022D2003900114094
:103000008946174202D0A34200D9230002221100B0
:10301000394010913A4209D02A00250057469A4675
:1030200033004E46994621E022004CE62A004546F0
:10303000A04606E0541C5B4629002020B0473B0018
:1030400022005F1C0B999942F4D84446A8463B00E5
:10305000250057469A4633004E46994606E01D0025
:103060000137541C5B464146C84722003878002887
:1030700004D0002EF4D06B1E002DF0D11500534665
:103080004E46109A002A03D1119B0133119331E56A
:103090000B9F2A0006E0551C5B4641462020B047A6
:1030A00023002A005C1C9F42F5D81500ECE7212381
:1030B0003B431C9A111D1C9112680593082304932D
:1030C0000394083302930023019300925B462A0085
:1030D00041463000FFF75FF80500119B0133119363
:1030E00008E56C1C5B462A0041462520B047119B31
:1030F000013311932500FDE46C1C5B462A00414618
:10310000B047119B013311932500F3E40A4B9A4613
:10311000EEE4B2465D450DD35B465A1E5B46414622
:103120000020D047280013B0F0BCBB46B246A946E9
:10313000A046F0BD2A00F1E7A51F001000B585B03C
:103140000290039101210448009313004A4202A90E
:10315000FFF7C0FC05B000BDA71F001000BEFDE7D3
:1031600010B5FFF7FBFF000030B583B00D0019006C
:10317000002A0BD0074B084C019200932B00020051
:10318000200000F05FF90120FFF7E8FF034B1A0071
:10319000F1E7C046D8600010E8600010E46000105D
:1031A00010B5EFF30583002B00D000BEFEF704FA44
:1031B000034C01E008CC9847024B9C42FAD310BD67
:1031C0000C5B0010185B001010B503000800110024
:1031D0001B68984710BD0000F8B507000D001600E9
:1031E000437D002B02D0002400200CE00368110076
:1031F000280098472DE03B7D10E03B6815480221F0
:103200009847601C0134B44214DA002CF3DD2B190A
:10321000013B1B780D3B5A425341DBB22A5D0A2A1F
:10322000F0D1002BEED1A042E7DA3B68211A281832
:103230009847E2E7B04203DA3B68311A281898470A
:10324000002E06DDAD19013D2B780D3B5A4253414E
:103250003B75F8BD2071001070B505000368002BA8
:1032600016D00C4B1C6805E0290004C92000FFF7AC
:10327000B3FF2469002C09D02368002BF9D0064B3A
:103280001B68002BF0D0A342F3D1EDE700232B60A5
:1032900070BDC046E4060020E806002070B50500B9
:1032A0000C000B68802B05D023685A1C2260E418A0
:1032B000257170BD0800FFF7CFFFF5E710B5FDF7EA
:1032C0003DFF074A002312184B41002B03DB054842
:1032D00002F0F6FB10BD01225242034BF7E7C04655
:1032E00040420F0024040020FFFFFF7F10B502487A
:1032F00002F0CEFB10BDC04624040020F0B5CE463F
:10330000474680B583B006000D0090461C00FFF7CD
:10331000D5FF81466B1C05D0002C08D0184F194BE7
:103320001C6807E0300002F07BFB0500F4E7164F55
:10333000F5E72469002C17D02368002BF9D0134B34
:103340001B68002B01D0A342F3D12A0031002000DA
:10335000B8474346002BECD06B46D91D0A230B70AF
:1033600001222000B847E4E74B46002B05D1280096
:1033700003B0C0BCB946B046F0BDFFF7B7FFF6E7F3
:10338000D9310010E4060020C9310010E806002001
:10339000094A01E010331A001368002B08D0834259
:1033A000F8D1002907D1036913600023036102E00B
:1033B000002900D010607047E406002010B5064BCD
:1033C0001C6801E098472469002C03D06368002B37
:1033D000F8D1F8E710BDC046E406002010B500F0B3
:1033E00043F9012010BD70B5050002F019FB04007F
:1033F0000123012201002800FFF780FFFFF7DEFF15
:10340000200070BD70B5A2B004000E00FFF756FF9B
:103410000500002301930A483300220001A9FFF7A9
:103420008DFE040001A8FFF717FFFFF7C7FF002D6F
:1034300002D1200022B070BDFFF758FFF9E7C04667
:103440009D3200100FB400B583B004A901C90191E9
:10345000FFF7D8FF03B008BC04B0184710B582B01E
:103460000C00144BC3185A425341134A5B009B5E35
:103470008B4204D06B46DA1D1470002115E06B46B8
:10348000DA1D0D23137000210029F3D183699B06F7
:10349000FCD41378036001310132F5E783699B06A0
:1034A000FCD413780360013101320029F6D002B058
:1034B00010BDC0460080FCBFC40B002082B00022BB
:1034C0006B46D91D06E08369DB06FCD403680B70EC
:1034D00001320131002AF6D06B46D87902B070472C
:1034E00070B506000D00002405E0315D034B18683F
:1034F000FFF7B4FF0134AC42F7DB70BDC80B00200E
:10350000F8B506000D00002705E07C1CF719FFF751
:10351000D5FF38702700AF4204DA0D4A106882697F
:10352000D206F2D50B4A1268002A0AD0084A12685D
:1035300050219163506B18390140074B9C466244FF
:103540001160002F01D03800F8BD033FFBE7C046F3
:10355000C80B0020B00600203410000010B5064B48
:103560001B68002B06D0054A126800219163044AAB
:103570001068984710BDC046B0060020C80B002058
:10358000B4060020024B1A6893691B07FCD47047ED
:10359000C80B002070B51D4B1B681D4A934207D015
:1035A000142400281ED01B4B1B68002B02D070BDBA
:1035B0001524F6E7174B1860174B196017492000C0
:1035C000FDF74CF801212000FDF736F80F4B1B6882
:1035D00050229A63596B183A0A4011498C46634449
:1035E0001A60E4E70B4A1268002AE0D000259D63C8
:1035F00000212000FDF720F808492000FDF758F8C9
:10360000044B1D60044B1D60D1E7C046C80B002071
:1036100000800340B0060020B40600205D35001095
:103620003410000070B50D001C000D4B1860002A0E
:103630000BDA002C0EDA0A4B18682900FDF71CFE85
:1036400008480121FFF7A4FE70BD02211000FCF71D
:10365000A9FEEEE702212000FCF7A4FEEBE7C0463E
:10366000C80B00200004002010B5074B1B78074B47
:103670001B78074B1B78E1210123002249020548F2
:10368000FFF7D0FF10BDC0466874001064740010CE
:10369000607400100040034070470000000000000C
:1036A0000B4A13681868203080F30988022080F3E1
:1036B0001488BFF36F8F3FBCAE4608BC04BC62B633
:1036C0001847C046C046C046C046C046C046C04671
:1036D00018070020000000000000000000000000AB
:1036E000EFF30980164B1A6820381060F0C044468A
:1036F0004D4656465F46F0C00D221207146E556EB9
:10370000566F176F3038F0C008B572B601F0F8FA8E
:1037100062B60CBC116808681030F0C8A046A94613
:10372000B246BB4680F309880D2212073038F0C834
:103730001466556656671767F0C81847C046C046F6
:103740001807002010B5FCF787FE000000B583B015
:1037500002E0D0231B069B6DD0231B061B6DDB07ED
:10376000F7D4D0231B06FF221A6500230193114BC7
:103770001968EFF3108372B60A68002AFCD0BFF311
:103780005F8F0D480168002202600A480068BFF39D
:103790005F8F026083F31088084B186801AA00F05D
:1037A0003BFB019B002B03D0054B802252051A6086
:1037B00003B000BD14070020D40B02203C0C0220F3
:1037C00004ED00E070B504000D00FDF7B7FC241A0D
:1037D0008D41200029000A4A01235B42801859418B
:1037E000002906DC01D0002070BDFA239B0098421E
:1037F000F9D3FA2292000023FEF706F8F4E7C04658
:1038000018FCFFFF10B5031F802464041C60043BF8
:103810001960044B01000C390B600300203B1A6057
:10382000403810BD4537001010B50A4B1B68002BFF
:1038300008D1094B802252051A60BFF34F8FBFF3A6
:103840006F8F10BD054B064ACC210648FF31FFF7AC
:103850008BFCC046B009002004ED00E0446100107C
:103860008C7100106861001072B6044A136801334D
:103870001360BFF34F8FBFF36F8F7047D00B0220E1
:10388000074B1A68002A08D000211960054B1B68F5
:10389000BFF35F8F116083F3108862B67047C04634
:1038A000B0090020CC0B022010B50A4B1B68002B7E
:1038B00005D0013B074A1360002B07D010BD064B13
:1038C000064AE8210648FF31FFF74EFCFFF7D8FF14
:1038D000F4E7C046D00B0220C861001078710010D8
:1038E00068610010EFF3108072B6704780F31088A3
:1038F0007047000010B5FFF7F5FF040001F06EF807
:10390000002803D0034B802252051A602000FFF7E5
:10391000EDFF10BD04ED00E010B5094C002323605D
:10392000084A13600520FDF759FDFA218900FDF7CB
:1039300045FF0138044B18600723236010BDC046C3
:1039400010E000E018E000E014E000E010B51F4BCC
:103950001968FF2212040A431A601968FF2212062E
:103960000A431A601A490E2001F08AFE19490F20F5
:1039700001F086FE18490B2001F082FEFFF7CCFF14
:10398000164B00221A60D0231B061C68144A1470C0
:10399000FF221A6502E0D0231B069B6DD0231B0675
:1039A0001B6DDB07F7D40F34FF212000FCF746FF27
:1039B0000C492000FCF752FE01212000FCF73CFEE0
:1039C000FFF76EFE01F09CF9FFF7BCFE20ED00E072
:1039D000E1360010F538001099360010D00B0220A7
:1039E000180400204D37001010B5094B1B78D02269
:1039F00012061068834200D010BDEFF30583002B40
:103A000002D05B00C018F7E701F0C2FBF4E7C04644
:103A10001804002010B582B00C0002682B4B9C46A5
:103A200062449210012393401A021343190A284B4F
:103A30001A78D0231B061B689A4220D040BF026828
:103A4000244B1B689A423BD01A68002AFCD0BFF373
:103A50005F8F214A13680B4313601E4B1B68BFF333
:103A60005F8F00221A600023D0221206536502687D
:103A7000BFF35F8F136084F3108802B010BD40BFA6
:103A80000368BFF35F8F00221A6084F31088EFF39E
:103A90000583DBB2002B04D1104B186800F06AF9E3
:103AA000EBE7002301930D4B186801AA00F0B4F96D
:103AB000019B002BE1D00A4B802252051A60DCE703
:103AC000054A13680B431360CDE7C04600FFFF2F84
:103AD0001804002014070020D40B02203C0C022004
:103AE00004ED00E0F0B583B006000F0015001C00E7
:103AF000EFF30583DBB2002B29D1314B1A78D023A9
:103B00001B061B689A4228D12E4B1B68002B30D114
:103B100028002100FFF756FE031E37D03268002A26
:103B20002ED028490A60284A1760326827498C46F7
:103B300062449210012191400A021143090A244A69
:103B4000106800930023012200F084F825E0214B47
:103B5000214A22482249FFF707FB0368BFF35F8F22
:103B600000221A6081F3108828002100FDF708FA6E
:103B700022E01C4B184A8B211848C900FFF7F4FAC1
:103B8000194B154A15481949FFF7EEFA3368BFF388
:103B90005F8F00221A6087F31088154B5B6A9C4286
:103BA00007D8134A926AAA4208D29C4201D0012047
:103BB00002E0FFF739FE002003B0F0BD0120FBE773
:103BC00018040020B0090020CC0B022000FFFF2FBA
:103BD0003C0C0220DC610010407100106861001094
:103BE0004D040000446100104862001061040000B0
:103BF0000040054010B5FCF765FC054B9C46604451
:103C00008000044B186000F018F8034B186010BDDA
:103C100040000034140700203C0C0220002A03D18D
:103C2000014206D1100003E00840884203D0002082
:103C300070470120FCE70120FAE710B51C2001F0D5
:103C4000B1FD041E03D0002308C000F0F1F82000ED
:103C500010BD0000F0B5C64600B506000D00170007
:103C6000984600282FD080235B04994232D2002945
:103C700037D001F093FA002802D1069B002B37D1F0
:103C800000F098FE3468424629002000FFF7C6FF86
:103C9000002834D0002F48D02300AB4333600023EA
:103CA000069300F059FF069B002B08D000283FD058
:103CB00001F0E6FA040083013DD52402240A200025
:103CC00080BCB846F0BD254B254A48212548FF3128
:103CD000FFF74AFA244B224AA42122484900FFF761
:103CE00043FA224B1E4A4A211E48FF31FFF73CFA95
:103CF0001F4B1B4AA6211B484900FFF735FA069BBC
:103D0000002BCED0002F0DD100214346002B02D036
:103D10008023DB0419432943301D069A01F062F821
:103D20000024BEE780214904EFE700230693B8E7AB
:103D3000FFF77AFDBCE7FFF797FD3468424629009C
:103D40002000FFF76BFF002804D0002F02D02300D3
:103D5000AB433360FFF7A8FDAFE7C0465C620010DD
:103D6000AC71001068620010B4620010EC620010C8
:103D700004630010F8B504000D0000280DD0802366
:103D80005B0499420FD206000C3600F013FE206946
:103D900023682B432360002717E0174B174A184866
:103DA0001849FFF7E1F9184B144A15481749FFF76E
:103DB000DBF921681940994206D111E0236880217E
:103DC0008904194301F0FEF82800B0420CD0456880
:103DD000026813021B0A5101EBD421680B42F3D095
:103DE000D201EBD51F43E9E72368BB43236000F012
:103DF000B3FE2068F8BDC0465C62001098710010E8
:103E000068620010320200005863001033020000A4
:103E100010B5FFF7AFFF10BD10B51300034C0A003B
:103E20000100200001F0F4FB10BDC046113E00105F
:103E3000030008334360012252428260C360036181
:103E400000230360704700230361704730B50D689D
:103E50006B1C10D0030008331C005B681A68AA4270
:103E6000FAD963684B6099608C606160086103688F
:103E70000133036030BD0469F3E703694168826878
:103E80008A60416851605A68824205D0002202610E
:103E9000186801381860704782685A60F6E710B5F4
:103EA0000400FFF7E1FCA36B002B04D10124FFF712
:103EB000FBFC200010BD0024F9E770B504001500DC
:103EC000866B026C002A0CD10368002B03D0002003
:103ED0000136A66370BD806801F072F90023A3600B
:103EE000F6E7002D0DD14068FEF756F86368226CA6
:103EF0009B186360A26893421AD32368636028000A
:103F0000E6E7C068FEF748F8E368226C51429B1A66
:103F1000E3602268934202D2A3685B18E360022D3B
:103F200001D00020D4E7002E04D0013E0020CFE7CE
:103F30002800CDE70020CBE710B5030008001A6C7D
:103F4000002A0AD0DC68A418DC6099688C4201D38E
:103F50001968D960D968FEF71FF810BD70B582B036
:103F60000190846C002C0AD0A26BE36B9A420CD2B5
:103F7000A26B93420FD80025280002B070BD194BE8
:103F8000194A1A481A49FFF7EFF81A4B164A174808
:103F90001949FFF7E9F84523E65C76B2002201A94A
:103FA0002000FFF78AFF0500731C0AD1636A002B0B
:103FB000E2D02000243000F085FF0028DCD001256D
:103FC000DAE700F005FD8642D6D27F2E04D0013616
:103FD00076B24523E654CFE7084B034A0348084925
:103FE000FFF7C2F88C63001000720010A06300108D
:103FF000F80C0000E4630010F90C00002C640010C1
:10400000190D000070B50500FFF72EFC4523EC5C90
:1040100064B20AE06B6A002B17D02800243000F04D
:1040200051FF00280ED1013C64B2002C0DDDAB6CB9
:10403000002BEFD02800FFF791FF0028F3D001F00C
:10404000A1F8F0E701F09EF8EDE74523FF22EA54DE
:10405000FFF72AFCFFF708FC4423EC5C64B201E0A4
:10406000013C64B2002C0BDD2B69002B08D028002A
:10407000103000F027FF0028F2D001F083F8EFE7BE
:104080004423FF22EA54FFF70FFC70BDF8B504008B
:104090000D0000282BD0C36B002B54D0026C0026DF
:1040A000190C100C002937D181B2002926D1002E1D
:1040B00049D1FFF7D9FB2268E36B206C010059431B
:1040C0005118A1600021A1636260013B4343D218F3
:1040D000E260FF234422A3540132A354002D29D1CE
:1040E0002369002B1DD1FFF7DFFB0120F8BD194B21
:1040F000194A38211948FF31FFF736F8011C181CFE
:104100009BB292B25A4380B289B24143120C8918D1
:10411000090CCCD00126CAE780B20028FAD1101CC5
:10412000EEE72000103000F0CDFE0028DBD0FFF7D6
:104130007BFBD8E720001030FFF77AFE2000243008
:10414000FFF776FECFE7064B034AB6210348490046
:10415000FFF70AF85064001030720010A0630010DE
:104160005864001070B51D00049C00290BD1246018
:10417000E063216401212000FFF788FF5023E5540C
:104180000023A36470BD2260F2E70000F0B583B0A5
:1041900004000F001600002831D00021030C3A0C57
:1041A000002B27D193B2002B16D1002927D138003C
:1041B00060430300553322D8543001F0F3FA051E52
:1041C00007D0020054320090330039002000FFF77E
:1041D000C9FF280003B0F0BD131C201CA5B2BAB261
:1041E0006A4380B29BB24343120C9B181B0CDCD079
:1041F0000121DAE792B2002AFAD1381CEEE7034B2C
:10420000034A04480449FEF7AFFFC0467C6400102F
:104210001C720010A06300102A020000F0B5D64600
:10422000474680B583B004000F0001921D000028AE
:1042300019D000291ED0022D02D1E36B012B22D10F
:10424000FFF750FB8046A26BE36B9A4221D3022D0D
:104250001FD000244046FFF749FB200003B0C0BC3C
:10426000BA46B046F0BD334B334A92213348C900B9
:10427000FEF77AFF036C002BDDD0314B2E4A2F481E
:104280003049FEF771FF304B2B4A2C482F49FEF77F
:104290006BFF4523E65C76B2A36B9A462A00390091
:1042A0002000FFF70AFE731C25D1A36C002B10D051
:1042B000022D02D15346002B2FD12000FFF74EFED6
:1042C00000282CD0019A002A2BD00123136001244E
:1042D000C0E7636A002B01D10124BBE72000243032
:1042E00000F0F0FD00281ED0019A002A1DD0012305
:1042F00013600124AEE700F06BFB864217D27F2EDD
:1043000005D0013676B24523E6540124A2E7104BCE
:10431000094A0A480F49FEF727FF01249AE70124BA
:1043200098E7012496E7012494E7012492E7012409
:1043300090E7C04650640010E4710010A0630010C4
:104340008864001091040000E064001092040000F2
:104350002C6400101E050000F0B585B004000E00AE
:10436000019200280ED0002912D000F017FF051E80
:1043700017D1019B002B4ED0434B444A444845493A
:10438000FEF7F2FE444B414A41484449FEF7ECFE39
:10439000036C002BE9D0424B3C4A3D484149FEF7B3
:1043A000E3FE002537E031002000FFF7C5FD013FA7
:1043B000A7632369002B04D1FFF776FA012005B02B
:1043C000F0BD2000103000F07DFD0028F4D0FFF794
:1043D0002BFAF1E7FFF768FA0020F0E702A800F0F7
:1043E0006BFE013521E044230022E25428E04523FE
:1043F0000022E25429E02000FFF704FE00F0ACFBAD
:1044000009E02000FFF7FEFD00F0A6FB2000FFF70B
:1044100046FD002835D1FFF727FAA76B002FC2D140
:10442000019B002BD6D0002DD8D0FFF73DFA00F02D
:10443000C1FAFFF719FA4423E35C5BB20133D2D02F
:104440004523E35C5BB20133D1D0FFF72DFA01A91C
:1044500002A800F03DFE0028D3D12000FFF71FFD89
:104460000028C8D001992000243000F09DFC2000D5
:10447000FFF7C8FD00F070FB0028CCD1FFF7D4F99E
:10448000C9E700209BE7C04604630010D471001008
:10449000A0630010F205000030650010E90500007F
:1044A0003C650010ED05000070B5002804D000291F
:1044B00022D00024002209E0104B114A1148124971
:1044C000FEF752FE114BEC1814E00132072A0FD808
:1044D0000E4BD5005B195B688342F3D0002CF4D1FE
:1044E0000A4BD500EB58002BEFD1084BEC18ECE74A
:1044F000002C01D02160606070BDC046986500103E
:10450000C0710010A0630010C90B0000780C0220DD
:1045100070B504000D001600FFF7A6F94423E35C14
:104520005BB201330DD04523E35C5BB201330CD0A9
:10453000FFF7BAF9A36B002B0BD02000FFF762FD49
:1045400070BD44230022E254EDE745230022E254EB
:10455000EEE7200024303200290000F083FCECE775
:10456000084B1B681B68002B04D1074B01225242E9
:104570001A607047034B1B68DB681A68024B1A60AD
:10458000F7E7C04620070020500C022010B50400B9
:10459000006B01F0CBF9200001F0C8F910BD00005C
:1045A000F0B5DE4657464646C0B582460F001400B9
:1045B0009B46089E0A9D286B9200A521FDF7E6FC0C
:1045C0002B6B1E4A94466444A4001B190722934394
:1045D0009846002F0DD000240F2C07D83A5D2B19D8
:1045E00034331A70002A01D00134F5E74323002246
:1045F000EA541F2E1CD8EE62EE64281DFFF723FC40
:1046000028001830FFF71FFC2D6120239B1BAB6196
:104610006D625A4651464046FFF7F4F82860099B00
:10462000002B00D01D60E0BCBB46B246A846F0BDE2
:10463000034B044A04480549FEF796FDFFFFFF3F80
:10464000EC65001064730010A8650010640700009A
:10465000F0B587B00490059116001F00900001F09E
:10466000A1F8051E1DD0702001F09CF8041E14D086
:1046700070220021FDF78AFC256300230393029436
:104680000D9B01930C9B00933B003200059904980D
:10469000FFF786FF200007B0F0BD280001F046F9C3
:1046A000F8E70400F6E7000070B5002407E0A30077
:1046B0001B1998000E4BC018FFF7BAFB01341F2CD2
:1046C000F5D90C4D2800FFF7B3FB0B4C2000FFF78A
:1046D000AFFB0A48FFF7ACFB0948FFF7A9FB094805
:1046E000FFF7A6FB084B1D60084B1C6070BDC04661
:1046F00030070020140C0220280C0220640C022039
:10470000D80C0220C40C022020070020280700201B
:1047100010B50400FFF7A8F8284A136801331360A6
:10472000274B1B68002B0CD0264B1B68002B0DD190
:10473000234B1B68DA6AE36A9A4207D8204B1C6055
:1047400004E01F4B1C601368012B31D01E4A136814
:10475000013313606364E16A1C4B1B68994201D901
:104760001A4B19601A4A8B005B189B00D3185B68C0
:10477000A3609868E060211D41609960E06A830051
:10478000191889008918616119188900895801313F
:104790001B189B009950FFF787F80A4B1B68002BEA
:1047A00005D0074B1B68DA6AE36A9A4203D310BD4F
:1047B000FFF77AFFCAE7FFF737F8F8E7D80B0220D0
:1047C00018070020B80C0220E40B0220E80B02209E
:1047D0003007002010B514E0FFF746F80B4BDB68FC
:1047E000DC68201DFFF749FB094A1368013B136091
:1047F000084A1368013B1360FFF756F82000FFF7E3
:10480000C5FE044B1B68002BE6D110BDD80C02205E
:10481000D80B0220DC0B022010B5FFF7DBFF034BA7
:104820001B68012BF9D9FEF7FFFFF6E730070020E0
:10483000F0B583B004000191214B1E68214B1F6825
:10484000214B1D68214B19686D220020885418687F
:104850000430FFF712FB631C0DD034191B4B1B688F
:104860005C60A6421ED9194B196804312800FFF775
:10487000EDFA03B0F0BD019B002BEED0144A516855
:10488000124B1868816018688C68C460186804301E
:1048900060601868043088601B685A6113680133CF
:1048A0001360E6E7094B196804313800FFF7CEFAC8
:1048B000084B1B68A342DCD9064B1C60D9E7C046F5
:1048C000EC0C0220200700202807002018070020F9
:1048D000C40C0220500C022010B582B0059C01943B
:1048E000049C0094FFF7B4FE002804D0FFF710FFEB
:1048F000012002B010BD01204042FAE710B586B099
:1049000000230F2B07DC0F4AD25C02A9CA54002AED
:1049100001D00133F5E700240120002C01DD06B0B1
:1049200010BD80220848A30008495B1801930023AA
:104930000093520002A9FFF7CFFF0028EFD0013407
:10494000EBE7C046FC65001019480010440C02203B
:1049500010B5FFF7D3FF012804D0013014D00D4B60
:104960001B6810BD00F028FE0128F6D172B60A4B74
:10497000012252421A60094B02321A60084B00228F
:104980001A60FEF7E3FFEAE7064B074A07480849C3
:10499000FEF7EAFB7C730010500C0220B80C0220DA
:1049A000EC0C02200466001044730010A86500108F
:1049B000A90E0000024A1368013313607047C04615
:1049C000E00B0220014B18687047C046EC0C022037
:1049D000014B18687047C046D80B0220F8B54F4B02
:1049E0001B68002B00D093E04D4B1E6801361E6003
:1049F000002E10D14B4B1B681B68002B21D1494A5C
:104A00001168494B186810601960484A13680133EF
:104A10001360FFF7A5FD464B1B68B34217D9002072
:104A2000444B1B68D96A444A8B005B1899008B5829
:104A3000012B00D90120414B1B68002B6DD00120B8
:104A40006BE03F4B3F4A40484049FEF78DFB00205A
:104A500033E0374B012252421A60E1E7344B1A60CF
:104A6000DEE7D96851603EE00021996211680139A2
:104A70001160DA6A364909688A4201D934490A6004
:104A80002D499400A418A2008A1852689A6094686C
:104A9000DC6065609560DC6AA2001719BD006D18C6
:104AA0005D61BD006D580135BC006550DA6A214B6F
:104AB0001B68DB6A9A4200D901201A4B1B681B68ED
:104AC000002BC6D0174B1B68DB68DB685A68964220
:104AD000C4D35A699C68D968A1609C684C605168CD
:104AE0001D1DA942BDD00021596111680139116015
:104AF0009A6A002ABDD0DC69196AA160DC694C6041
:104B00005468190018318C42AED1196A5160ABE774
:104B1000104A1368013313600020F8BDE00B022037
:104B2000EC0C02202007002028070020540C022053
:104B3000500C02201807002030070020F80C02203B
:104B40001866001020730010A86500105F120000A6
:104B5000E80B0220600C022010B5FEF785FE4A4BE0
:104B60001B68002B0DD0484B1A68013A1A601B686D
:104B7000002B00D082E0454B1B68002B0DD1002498
:104B80007DE0434B434A44484449FEF7EDFA196A35
:104B9000516015E0D968516021E00023404A126855
:104BA000002A4AD03E4BDB68DB689A6AD869196AEA
:104BB0008160D86948605068190018318842E6D091
:104BC000002199621168013911605A699868D968A1
:104BD00081609868486051681C1DA142DAD00021AC
:104BE0005961116801391160D86A2E4A12689042E1
:104BF00001D92C4A10602C498200121892008A18A0
:104C000052689A609068D86044609460DC6AA20040
:104C10001019800040185861101980004058013068
:104C2000121992005050D96A204A1268D26A9142F1
:104C3000B4D91F4A01211160B0E7002B01D0FFF762
:104C40008FFC1C4B1C68002C0CD1194B1C68002CD1
:104C500015D0164B1B68FEF7E7FD01240FE0013C61
:104C6000002C07D0FFF7BAFE0028F8D0104B012225
:104C70001A60F4E70F4B00221A60E6E70024FEF703
:104C800013FE200010BDC046E00B0220D80B02200E
:104C90009066001034730010A86500108B0F0000A0
:104CA000640C0220E80B02203007002018070020C7
:104CB000F80C0220600C022010B5041E0DD0FFF786
:104CC00079FE0A4B1B68012B0AD100212000FFF757
:104CD000AFFDFFF741FF002801D1FEF7A5FD10BD94
:104CE000034B044A04480549FEF73EFAE00B022054
:104CF000D866001058730010A86500108E090000D7
:104D000010B5204B1B68002B03D01F4B01221A60EB
:104D100010BD1D4B00221A601C4B1B681C499A00D9
:104D2000D21890004258002A09D1002B01D0013B33
:104D3000F4E7184B184A19481949FEF715FA080004
:104D40009900CC18A2008218546864685460C9188D
:104D50008A000832121894420CD00D4A9900C918E2
:104D6000880012185268D1680E4A116007490B601A
:104D70001368CDE702009900C91888001218D1689D
:104D80005160EAE7E00B0220F80C0220E80B022059
:104D900030070020F46600100C730010A8650010A6
:104DA000FA1300001807002010B50C00002809D0E5
:104DB000084B19681831FFF749F801212000FFF767
:104DC00037FD10BD044B054AA42105484901FEF7F3
:104DD000CBF9C0461807002004670010F4720010D9
:104DE000A865001070B503001000002B1ED0154AF6
:104DF0001268002A20D0144C2568802212060A432B
:104E0000AA615A682168CA61216895680D622168A3
:104E100018316960216818319160226893621A68BC
:104E200001321A600121FFF703FD70BD074B084AEC
:104E300008480949FEF798F9084B054A054808490A
:104E4000FEF792F9E00B022018070020046700101B
:104E5000D4720010A86500109E14000010670010A6
:104E6000A214000070B5030008001100002B18D038
:104E70005A680F4C2568EA61256896682E62256895
:104E800018357560256818359560226893621A6830
:104E900001321A60002901D001204042FFF7C8FC0E
:104EA00070BD044B044A05480549FEF75DF9C0464C
:104EB0001807002004670010B4720010A8650010E5
:104EC000BE14000010B5C368DB68002B4CD09A6A92
:104ED000D869196A8160D86948605168180018302B
:104EE000814247D0002199621168013911602B4A33
:104EF0001268002A44D15A699868D9688160986814
:104F0000486051681C1DA14237D0002159611168C9
:104F100001391160D86A224A1268904201D9204AA8
:104F2000106020498200121892008A1852689A6014
:104F30009068D86044609460DC6AA2001019800018
:104F40004018586110198000405801301219920021
:104F50005050DA6A144B1B68DB6A9A421CD9134B17
:104F600001221A60012018E0114B124A124813491D
:104F7000FEF7FAF8196A5160B4E7D9685160C4E7DE
:104F80000F4A5168D9618C681C62606088609A62BF
:104F9000116801311160DCE7002010BDE00B022038
:104FA000E80B02203007002018070020F80C022030
:104FB0003C67001098720010A8650010F5140000FE
:104FC000640C022010B5314B1B68002B4CD08023A1
:104FD0001B060B430360C368002B4BD00269446877
:104FE0008168A16044684C605168814248D00021CA
:104FF00001611168013911605A699868D968816046
:105000009868486051681C1DA1423CD0002159613C
:10501000116801391160D86A1D4A1268904201D99D
:105020001B4A10601B498200121892008A185268AD
:105030009A609068D86044609460DC6AA20010199D
:105040008000401858611019800040580130121932
:1050500092005050DA6A104B1B68DB6A9A4202D900
:105060000E4B01221A6010BD0D4B0E4A0E480F491F
:10507000FEF77AF80E4B0B4A0B480E49FEF774F810
:1050800081685160B3E7D9685160BFE7E00B022047
:10509000E80B02203007002018070020F80C02203F
:1050A0001067001074720010A8650010431500000E
:1050B0003C6700104E150000034B1B680360034B58
:1050C0001B6843607047C046540C0220EC0C022061
:1050D000F8B504000D00002817D000291BD0FEF7FA
:1050E000C3FB1F4B1A686368D61A1E4908686D21F6
:1050F000415C002915D01B4B1A686D230021D15447
:105100000124FEF7D1FB2000F8BD174B174A1848C1
:105110001849FEF729F8184B144A15481749FEF7A5
:1051200023F82968481C18D027681548006887426A
:1051300005D0934203D800232B600124E1E7B1425C
:1051400003D800232B600124DBE79B1A5B182B603C
:105150002000FFF7B1FF0024D3E70024D1E7C046C9
:10516000EC0C0220180700204C6700105C72001045
:10517000A8650010A515000058670010A6150000CE
:10518000540C0220014B01221A607047F80C0220D7
:10519000014B18687047C04618070020064B1B6873
:1051A000002B07D0054B1B68002B01D0002002E02C
:1051B000022000E001207047B80C0220E00B022022
:1051C00070B5041E45D0254B1B6883420CD1036D7E
:1051D000002B0FD0013B0365C16AC26C91423AD0EB
:1051E000002B0DD0002070BD1D4B1E4A1E481F49CC
:1051F000FDF7BAFF1E4B1B4A1B481E49FDF7B4FFC3
:10520000051D2800FEF739FEE16CE16220235B1AE0
:10521000A361194B1B68994201D9174B1960174AB2
:105220008B005B189B00D3185B68A3609968E160F2
:105230004D609D60E06A83001918890089186161DA
:1052400019188900895801311B189B0099500120B9
:10525000C9E70020C7E70020C5E7C04618070020BF
:105260006867001044720010A8650010281A00003A
:1052700080670010291A0000E80B02203007002088
:10528000044B1A6890691A68D16A1A6820235B1A5D
:105290009361704718070020074B1A681368002BAA
:1052A00006D101330360002B04D1D368186870471E
:1052B0000023F7E70020FAE71C07002010B5416043
:1052C000006191420CD8D21A83699A4201D301201D
:1052D00010BD011D094B1868FEF7B8FD0020F7E767
:1052E0009A4201D2994206D2011D054B1868FEF779
:1052F000ADFD0020ECE70120EAE7C0462C070020C6
:105300001C07002070B504000D00160004E0A3691E
:10531000ED18236A20009847A16949192B00320033
:105320002000FFF7CBFF0028F1D170BD70B505005C
:105330000E000C4B1B68DB68DC68201DFEF79DFD32
:105340002823E35C5A0707D4012293432732A3544E
:10535000236A2000984770BD320029002000FFF723
:10536000D1FFF5E71C07002010B505E0DB681868E1
:1053700001214942FFF7DAFF054B1B681A68002A32
:10538000F4D1034A0349086810600B6010BDC046A1
:105390001C0700202C07002070B50500FFF712FB4A
:1053A0000400074B1B68834205D800232B60044B85
:1053B0001C60200070BDFFF7D7FF01232B60F6E7CC
:1053C000480C022070B582B004000D00FFF7F2FA1D
:1053D00001A8FFF7E1FF0600019B002B22D1002D61
:1053E00014D1A0420BD2A11B104B18682A00FFF762
:1053F0008FF8FFF7B1FB002811D002B070BDFFF7A6
:10540000ABFB31002000FFF791FFF6E7084A126876
:105410001268002A01D10125E5E71D00E3E7FEF748
:1054200003FAEAE7FFF798FBE7E7C046F00C022033
:105430002C07002030B587B01022002102A8FCF70D
:10544000A5FD02E0029B002B0FDA384B1868002202
:1054500002A9FEF781FF002865D0029B002BF1DA3C
:10546000039B049805999847ECE7049C6369002B1B
:1054700002D0201DFEF701FD01A8FFF78DFF0500FA
:1054800002990929E1D88900294B59588F462822C9
:10549000A35C01210B43A354039BA169591802008B
:1054A0002000FFF70BFF0028CFD02823E35C5A072A
:1054B00007D4012293432732A354236A200098473C
:1054C000C3E70399A369C9182A002000FFF71AFF50
:1054D000F3E72822A35C01218B43A354B5E72822DC
:1054E000A35C01210B43A3540399A161002906D0B9
:1054F0000918030002002000FFF7E0FEA5E70D4BAE
:105500000D4A82310D48C900FDF72EFE2823E35CC9
:105510009A0704D5012293432732A35495E720002C
:1055200000F004FA91E707B030BDC046F00C02204D
:105530008073001098670010A8730010C0670010F7
:1055400000B583B001A8FFF7A7FE0199FFF73AFF66
:10555000FFF770FFF6E7000070B5FEF785F9104B16
:105560001B68002B02D0FEF79FF970BD0D4D28007F
:10557000FEF75EFC0C4C2000FEF75AFC0B4B1D6046
:105580000B4B1C60002210210A20FEF7FFFD044B8C
:1055900018600028E7D00749FEF786FFE3E7C0461A
:1055A000F00C0220EC0B0220000C02201C07002053
:1055B0002C0700200468001000B583B0FFF7CCFF73
:1055C0000C4B1B68002B0ED080220B490B480C4B58
:1055D00001931F2300930023D200FFF77DF90028D9
:1055E00001D003B000BD074B074AA321074849007B
:1055F000FDF7BAFDF00C02200C68001041550010B8
:10560000F40C022014680010C4730010C06700106E
:1056100010B584B014001A0002235B42009301907D
:1056200002910394034B186800236946FEF7F6FDC8
:1056300004B010BDF00C0220054B984204D3054B7A
:10564000984203D3002000E0002070470120FCE7CF
:10565000C0010010CC010010044B9B688000195061
:10566000BFF35F8F82F310887047C04600ED00E003
:10567000024B9B688000C0587047C04600ED00E0B8
:10568000F8B505000E00EFF3108772B6FFF7F0FFD4
:105690000400B04203D0FFF7CFFF002806D03A0045
:1056A00031002800FFF7D8FF2000F8BD024B034A65
:1056B00003483721FDF758FD1C680010DC7300100B
:1056C00060680010104A53071BD0D11D072399436F
:1056D00080239B025B1A9B180A000C480260002181
:1056E0004160D318083B0720834309480360596091
:1056F0001960991A51601360064B1960064B1960C6
:10570000704780239B02E8E7CC0B0020BC0C0220F2
:10571000240700204C0C0220400C022010B51A4B2C
:1057200019001B688342FBD3174A914205D0174AE0
:1057300091420FD3164A91420CD84A688C18844281
:105740000FD042688418A34210D00360884200D072
:10575000086010BD0F4B104AFD2110484900FDF7AD
:1057600003FD406812184A600800EAE70C4C246800
:10577000A34206D05B68D21842600B681B680360C6
:10578000E4E70460E2E7C046BC0C0220CC0B00203A
:10579000CB0B0220B8680010FC73001034690010B5
:1057A00024070020F8B5041E10D0030009330CD8DC
:1057B000083407231A002240234207D001339B1AE2
:1057C000093AA2422AD3E41800E00024FFF7F2F8D5
:1057D000484B1B68002B23D0002C00DA7AE000D164
:1057E0007AE0454B1868A04200D277E0434B1A6834
:1057F000434B9A4217D3434B9A4214D83F495368BC
:10580000A3421CD21368002B19D03D498B4210D300
:1058100011003C4A93420CD81A00F0E70024D5E767
:10582000FFF750FFD8E7384B384A3948F521FDF7E4
:105830009BFC354B354A3648FB21FDF795FC2D4B3B
:105840001B6893424CD00D6808352D4B9D422CD3DC
:105850002C4B9D4229D813680B605368A3422BD36D
:105860001B1B102B07D9161977072CD173605460B6
:105870000B6833600E605168401A1F4B1860254B4F
:105880001B68984201D2234B186080231B060B43F0
:10589000536000231360204A136801331360FFF73D
:1058A0005BF96B071ED12800F8BD1C4B174A062177
:1058B0001748FF31FDF758FC194B144A0E211448C4
:1058C000FF31FDF751FC174B104A8B21104849005E
:1058D000FDF74AFC0025E2E70025E0E70025DEE7CA
:1058E0000025DCE7104B094A58210948FF31FDF734
:1058F0003BFCC04624070020400C0220BC0C0220C8
:10590000CC0B0020CB0B02208869001024740010FF
:10591000346900104C0C0220580C0220FC69001065
:10592000746A0010A86A0010DC6A001070B50028C4
:1059300026D00500083D1D4B9D4222D31C4B9D42A5
:105940001FD80300083B5B68002B21DA0200083AED
:105950001268002A23D1083804005B005B0843600A
:10596000FFF728F86168134A13685B181360280072
:10597000FFF7D4FE104A136801331360FFF7ECF809
:1059800070BD0E4B0E4AB5210E484900FDF7ECFBE9
:105990000D4B0B4A6C210B48FF31FDF7E5FB0B4B20
:1059A000074AB62107484900FDF7DEFBCC0B002073
:1059B000CB0B0220400C02205C0C0220186B001064
:1059C00018740010346900108C6B0010006C00100B
:1059D00010B5024800F004F810BDC046B40900201C
:1059E00030B589B0040004AD0D2200212800FCF779
:1059F000CDFA0D2200216846FCF7C8FA4B232B7024
:105A00000D226946280000F03BF8002304E05A1DEF
:105A100069468A5CE2540133072BF8DD09B030BDDA
:105A200010B583070AD00300032102E001330B42C3
:105A300005D01A78002AF9D1181A10BD0300196888
:105A40000C4A0D4C8A188A4322420FD15968094AE0
:105A500004338A188A43224208D15968054A04331C
:105A60008A188A432242F1D000E001331A78002AD2
:105A7000FBD1E1E7FFFEFEFE80808080F8B5C046E6
:105A800001B40248844601BC604700BF51020020B7
:105A900001B40248844601BC604700BFAD0100204C
:105AA00001B40248844601BC604700BF29030020BE
:105AB00001B40248844601BC604700BF29030020AE
:105AC00001B40248844601BC604700BF7901002050
:105AD000C9150010F51500105D1700107D1F00108E
